{
  "contractName": "CreateCampaign",
  "abi": [
    {
      "inputs": [
        {
          "internalType": "string",
          "name": "_campaignName",
          "type": "string"
        },
        {
          "internalType": "uint256",
          "name": "_campaignTargetAmount",
          "type": "uint256"
        },
        {
          "internalType": "uint256",
          "name": "_campaignPeriod",
          "type": "uint256"
        }
      ],
      "name": "createCampaign",
      "outputs": [
        {
          "internalType": "address",
          "name": "newCampaign",
          "type": "address"
        }
      ],
      "stateMutability": "nonpayable",
      "type": "function"
    }
  ],
  "bytecode": "0x608060405234801561001057600080fd5b50611aa7806100206000396000f3fe60806040523480156200001157600080fd5b50600436106200002e5760003560e01c80633020580b1462000033575b600080fd5b6200005160048036038101906200004b9190620002d8565b62000069565b60405162000060919062000398565b60405180910390f35b6000808484846040516200007d9062000119565b6200008b9392919062000459565b604051809103906000f080158015620000a8573d6000803e3d6000fd5b5090506000819080600181540180825580915050600190039060005260206000200160009091909190916101000a81548173ffffffffffffffffffffffffffffffffffffffff021916908373ffffffffffffffffffffffffffffffffffffffff160217905550809150509392505050565b6115d4806200049e83390190565b6000604051905090565b600080fd5b600080fd5b600080fd5b600080fd5b6000601f19601f8301169050919050565b7f4e487b7100000000000000000000000000000000000000000000000000000000600052604160045260246000fd5b620001908262000145565b810181811067ffffffffffffffff82111715620001b257620001b162000156565b5b80604052505050565b6000620001c762000127565b9050620001d5828262000185565b919050565b600067ffffffffffffffff821115620001f857620001f762000156565b5b620002038262000145565b9050602081019050919050565b82818337600083830152505050565b6000620002366200023084620001da565b620001bb565b90508281526020810184848401111562000255576200025462000140565b5b6200026284828562000210565b509392505050565b600082601f8301126200028257620002816200013b565b5b8135620002948482602086016200021f565b91505092915050565b6000819050919050565b620002b2816200029d565b8114620002be57600080fd5b50565b600081359050620002d281620002a7565b92915050565b600080600060608486031215620002f457620002f362000131565b5b600084013567ffffffffffffffff81111562000315576200031462000136565b5b62000323868287016200026a565b93505060206200033686828701620002c1565b92505060406200034986828701620002c1565b9150509250925092565b600073ffffffffffffffffffffffffffffffffffffffff82169050919050565b6000620003808262000353565b9050919050565b620003928162000373565b82525050565b6000602082019050620003af600083018462000387565b92915050565b600081519050919050565b600082825260208201905092915050565b60005b83811015620003f1578082015181840152602081019050620003d4565b8381111562000401576000848401525b50505050565b60006200041482620003b5565b620004208185620003c0565b935062000432818560208601620003d1565b6200043d8162000145565b840191505092915050565b62000453816200029d565b82525050565b6000606082019050818103600083015262000475818662000407565b905062000486602083018562000448565b62000495604083018462000448565b94935050505056fe60806040527307865c6e87b9f70255377e024ace6630c1eaa37f600660006101000a81548173ffffffffffffffffffffffffffffffffffffffff021916908373ffffffffffffffffffffffffffffffffffffffff160217905550600660009054906101000a900473ffffffffffffffffffffffffffffffffffffffff16600760006101000a81548173ffffffffffffffffffffffffffffffffffffffff021916908373ffffffffffffffffffffffffffffffffffffffff16021790555073e7f6f39b0a2b5adf22a4ebc8105af443086547c9600860006101000a81548173ffffffffffffffffffffffffffffffffffffffff021916908373ffffffffffffffffffffffffffffffffffffffff1602179055503480156200011e57600080fd5b50604051620015d4380380620015d4833981810160405281019062000144919062000386565b826000908162000155919062000642565b50816001819055508060038190555033600460006101000a81548173ffffffffffffffffffffffffffffffffffffffff021916908373ffffffffffffffffffffffffffffffffffffffff16021790555050505062000729565b6000604051905090565b600080fd5b600080fd5b600080fd5b600080fd5b6000601f19601f8301169050919050565b7f4e487b7100000000000000000000000000000000000000000000000000000000600052604160045260246000fd5b6200021782620001cc565b810181811067ffffffffffffffff82111715620002395762000238620001dd565b5b80604052505050565b60006200024e620001ae565b90506200025c82826200020c565b919050565b600067ffffffffffffffff8211156200027f576200027e620001dd565b5b6200028a82620001cc565b9050602081019050919050565b60005b83811015620002b75780820151818401526020810190506200029a565b83811115620002c7576000848401525b50505050565b6000620002e4620002de8462000261565b62000242565b905082815260208101848484011115620003035762000302620001c7565b5b6200031084828562000297565b509392505050565b600082601f83011262000330576200032f620001c2565b5b815162000342848260208601620002cd565b91505092915050565b6000819050919050565b62000360816200034b565b81146200036c57600080fd5b50565b600081519050620003808162000355565b92915050565b600080600060608486031215620003a257620003a1620001b8565b5b600084015167ffffffffffffffff811115620003c357620003c2620001bd565b5b620003d18682870162000318565b9350506020620003e4868287016200036f565b9250506040620003f7868287016200036f565b9150509250925092565b600081519050919050565b7f4e487b7100000000000000000000000000000000000000000000000000000000600052602260045260246000fd5b600060028204905060018216806200045457607f821691505b6020821081036200046a57620004696200040c565b5b50919050565b60008190508160005260206000209050919050565b60006020601f8301049050919050565b600082821b905092915050565b600060088302620004d47fffffffffffffffffffffffffffffffffffffffffffffffffffffffffffffffff8262000495565b620004e0868362000495565b95508019841693508086168417925050509392505050565b6000819050919050565b6000620005236200051d62000517846200034b565b620004f8565b6200034b565b9050919050565b6000819050919050565b6200053f8362000502565b620005576200054e826200052a565b848454620004a2565b825550505050565b600090565b6200056e6200055f565b6200057b81848462000534565b505050565b5b81811015620005a3576200059760008262000564565b60018101905062000581565b5050565b601f821115620005f257620005bc8162000470565b620005c78462000485565b81016020851015620005d7578190505b620005ef620005e68562000485565b83018262000580565b50505b505050565b600082821c905092915050565b60006200061760001984600802620005f7565b1980831691505092915050565b600062000632838362000604565b9150826002028217905092915050565b6200064d8262000401565b67ffffffffffffffff811115620006695762000668620001dd565b5b6200067582546200043b565b62000682828285620005a7565b600060209050601f831160018114620006ba5760008415620006a5578287015190505b620006b1858262000624565b86555062000721565b601f198416620006ca8662000470565b60005b82811015620006f457848901518255600182019150602085019450602081019050620006cd565b8683101562000714578489015162000710601f89168262000604565b8355505b6001600288020188555050505b505050505050565b610e9b80620007396000396000f3fe60806040526004361061009c5760003560e01c806376daefd01161006457806376daefd0146101795780639bacbb98146101a4578063b9aa3db6146101e1578063bc7be4a31461020c578063caaf9f1214610237578063cd43305c146102625761009c565b80630724fda9146100a15780630f45c089146100cc57806327d4af01146100f75780634920922a1461011357806351cff8d914610150575b600080fd5b3480156100ad57600080fd5b506100b661029f565b6040516100c3919061098c565b60405180910390f35b3480156100d857600080fd5b506100e161032d565b6040516100ee91906109ef565b60405180910390f35b610111600480360381019061010c9190610a45565b610353565b005b34801561011f57600080fd5b5061013a60048036038101906101359190610a45565b610640565b60405161014791906109ef565b60405180910390f35b34801561015c57600080fd5b5061017760048036038101906101729190610a9e565b61067f565b005b34801561018557600080fd5b5061018e610883565b60405161019b91906109ef565b60405180910390f35b3480156101b057600080fd5b506101cb60048036038101906101c69190610a9e565b6108a9565b6040516101d89190610ada565b60405180910390f35b3480156101ed57600080fd5b506101f66108c1565b6040516102039190610ada565b60405180910390f35b34801561021857600080fd5b506102216108c7565b60405161022e9190610ada565b60405180910390f35b34801561024357600080fd5b5061024c6108cd565b6040516102599190610ada565b60405180910390f35b34801561026e57600080fd5b5061028960048036038101906102849190610a9e565b6108d3565b6040516102969190610b10565b60405180910390f35b600080546102ac90610b5a565b80601f01602080910402602001604051908101604052809291908181526020018280546102d890610b5a565b80156103255780601f106102fa57610100808354040283529160200191610325565b820191906000526020600020905b81548152906001019060200180831161030857829003601f168201915b505050505081565b600660009054906101000a900473ffffffffffffffffffffffffffffffffffffffff1681565b60008111610396576040517f08c379a000000000000000000000000000000000000000000000000000000000815260040161038d90610bd7565b60405180910390fd5b600760009054906101000a900473ffffffffffffffffffffffffffffffffffffffff1673ffffffffffffffffffffffffffffffffffffffff1663dd62ed3e33306040518363ffffffff1660e01b81526004016103f3929190610bf7565b602060405180830381865afa158015610410573d6000803e3d6000fd5b505050506040513d601f19601f820116820180604052508101906104349190610c35565b50600760009054906101000a900473ffffffffffffffffffffffffffffffffffffffff1673ffffffffffffffffffffffffffffffffffffffff166323b872dd3330846040518463ffffffff1660e01b815260040161049493929190610c62565b6020604051808303816000875af11580156104b3573d6000803e3d6000fd5b505050506040513d601f19601f820116820180604052508101906104d79190610cc5565b50600a60003373ffffffffffffffffffffffffffffffffffffffff1673ffffffffffffffffffffffffffffffffffffffff16815260200190815260200160002060009054906101000a900460ff1661058d576005339080600181540180825580915050600190039060005260206000200160009091909190916101000a81548173ffffffffffffffffffffffffffffffffffffffff021916908373ffffffffffffffffffffffffffffffffffffffff1602179055505b6001600a60003373ffffffffffffffffffffffffffffffffffffffff1673ffffffffffffffffffffffffffffffffffffffff16815260200190815260200160002060006101000a81548160ff02191690831515021790555080600960003373ffffffffffffffffffffffffffffffffffffffff1673ffffffffffffffffffffffffffffffffffffffff16815260200190815260200160002081905550806002546106379190610d21565b60028190555050565b6005818154811061065057600080fd5b906000526020600020016000915054906101000a900473ffffffffffffffffffffffffffffffffffffffff1681565b3373ffffffffffffffffffffffffffffffffffffffff16600460009054906101000a900473ffffffffffffffffffffffffffffffffffffffff1673ffffffffffffffffffffffffffffffffffffffff16146106d957600080fd5b600154600254146106e957600080fd5b600060c86003476106fa9190610d77565b6107049190610e00565b9050600081476107149190610e31565b9050600760009054906101000a900473ffffffffffffffffffffffffffffffffffffffff1673ffffffffffffffffffffffffffffffffffffffff166323b872dd3085846040518463ffffffff1660e01b815260040161077593929190610c62565b6020604051808303816000875af1158015610794573d6000803e3d6000fd5b505050506040513d601f19601f820116820180604052508101906107b89190610cc5565b50600760009054906101000a900473ffffffffffffffffffffffffffffffffffffffff1673ffffffffffffffffffffffffffffffffffffffff166323b872dd30600860009054906101000a900473ffffffffffffffffffffffffffffffffffffffff16856040518463ffffffff1660e01b815260040161083a93929190610c62565b6020604051808303816000875af1158015610859573d6000803e3d6000fd5b505050506040513d601f19601f8201168201806040525081019061087d9190610cc5565b50505050565b600460009054906101000a900473ffffffffffffffffffffffffffffffffffffffff1681565b60096020528060005260406000206000915090505481565b60015481565b60035481565b60025481565b600a6020528060005260406000206000915054906101000a900460ff1681565b600081519050919050565b600082825260208201905092915050565b60005b8381101561092d578082015181840152602081019050610912565b8381111561093c576000848401525b50505050565b6000601f19601f8301169050919050565b600061095e826108f3565b61096881856108fe565b935061097881856020860161090f565b61098181610942565b840191505092915050565b600060208201905081810360008301526109a68184610953565b905092915050565b600073ffffffffffffffffffffffffffffffffffffffff82169050919050565b60006109d9826109ae565b9050919050565b6109e9816109ce565b82525050565b6000602082019050610a0460008301846109e0565b92915050565b600080fd5b6000819050919050565b610a2281610a0f565b8114610a2d57600080fd5b50565b600081359050610a3f81610a19565b92915050565b600060208284031215610a5b57610a5a610a0a565b5b6000610a6984828501610a30565b91505092915050565b610a7b816109ce565b8114610a8657600080fd5b50565b600081359050610a9881610a72565b92915050565b600060208284031215610ab457610ab3610a0a565b5b6000610ac284828501610a89565b91505092915050565b610ad481610a0f565b82525050565b6000602082019050610aef6000830184610acb565b92915050565b60008115159050919050565b610b0a81610af5565b82525050565b6000602082019050610b256000830184610b01565b92915050565b7f4e487b7100000000000000000000000000000000000000000000000000000000600052602260045260246000fd5b60006002820490506001821680610b7257607f821691505b602082108103610b8557610b84610b2b565b5b50919050565b7f616d6f756e742063616e6e6f74206265207a65726f0000000000000000000000600082015250565b6000610bc16015836108fe565b9150610bcc82610b8b565b602082019050919050565b60006020820190508181036000830152610bf081610bb4565b9050919050565b6000604082019050610c0c60008301856109e0565b610c1960208301846109e0565b9392505050565b600081519050610c2f81610a19565b92915050565b600060208284031215610c4b57610c4a610a0a565b5b6000610c5984828501610c20565b91505092915050565b6000606082019050610c7760008301866109e0565b610c8460208301856109e0565b610c916040830184610acb565b949350505050565b610ca281610af5565b8114610cad57600080fd5b50565b600081519050610cbf81610c99565b92915050565b600060208284031215610cdb57610cda610a0a565b5b6000610ce984828501610cb0565b91505092915050565b7f4e487b7100000000000000000000000000000000000000000000000000000000600052601160045260246000fd5b6000610d2c82610a0f565b9150610d3783610a0f565b9250827fffffffffffffffffffffffffffffffffffffffffffffffffffffffffffffffff03821115610d6c57610d6b610cf2565b5b828201905092915050565b6000610d8282610a0f565b9150610d8d83610a0f565b9250817fffffffffffffffffffffffffffffffffffffffffffffffffffffffffffffffff0483118215151615610dc657610dc5610cf2565b5b828202905092915050565b7f4e487b7100000000000000000000000000000000000000000000000000000000600052601260045260246000fd5b6000610e0b82610a0f565b9150610e1683610a0f565b925082610e2657610e25610dd1565b5b828204905092915050565b6000610e3c82610a0f565b9150610e4783610a0f565b925082821015610e5a57610e59610cf2565b5b82820390509291505056fea26469706673582212201f84b3ac64b9aef3de44e6d453d0dcf50d5fc7431439ee77bbda434fda7a76ff64736f6c634300080f0033a26469706673582212200fa7dcc52b9b939ce4483acca1e57c3fd4ff0c79f85ec30c459d0eebcbb300d864736f6c634300080f0033",
  "immutableReferences": {},
  "source": "// File: contracts/AlystCampaign.sol\n\npragma solidity ^0.8.15;\n\n\ninterface NOTEInterface {\n    function balanceOf(address account) external view returns (uint256);\n    function transfer(address to, uint256 amount) external returns (bool);\n    function allowance(address owner, address spender) external view returns (uint256);\n    function approve(address spender, uint256 amount) external returns (bool);\n    function transferFrom(address from, address to, uint256 amount) external returns (bool);\n}\n\n\n\ncontract AlystCampaign {\n\n    string public campaignName;\n    uint public campaignTargetAmount;\n    uint public campaignFundedAmount;\n    uint public campaignPeriod;\n    address public campaignCreator;\n\n    address[] public pledgers;\n\n    address public NOTEAddress = 0x07865c6E87B9F70255377e024ace6630C1Eaa37F;\n    NOTEInterface NOTE = NOTEInterface(NOTEAddress);\n\n    address alystTreasury = 0xE7f6F39B0A2b5Adf22A4ebc8105AF443086547c9;\n\n\n    mapping(address => uint) public userToPledgeAmount;\n    mapping(address => bool) public userHasPledged;\n\n\n\n    constructor(string memory _campaignName, uint _campaignTargetAmount, uint _campaignPeriod) {\n        campaignName = _campaignName;\n        campaignTargetAmount = _campaignTargetAmount;\n        campaignPeriod = _campaignPeriod;\n        campaignCreator = msg.sender;\n    }\n\n    function pledgeToCampaign(uint _amount) public payable {\n        require(_amount > 0, \"amount cannot be zero\");\n        NOTE.allowance(msg.sender, address(this));\n\n        NOTE.transferFrom(msg.sender, address(this), _amount);\n\n        if (!userHasPledged[msg.sender]) {\n             pledgers.push(msg.sender);\n        }\n        userHasPledged[msg.sender] = true;\n        userToPledgeAmount[msg.sender] = _amount;\n        campaignFundedAmount = campaignFundedAmount + _amount;\n\n\n    }\n\n    function withdraw(address _campaignTreasury) public {\n       require(campaignCreator == msg.sender);\n       require(campaignFundedAmount == campaignTargetAmount);\n\n       uint alystServiceCharge = address(this).balance * 3 / 200  ;\n       uint projectFund = address(this).balance - alystServiceCharge;\n\n        NOTE.transferFrom(address(this), _campaignTreasury, projectFund);\n        NOTE.transferFrom(address(this), alystTreasury, alystServiceCharge);\n\n    }\n\n\n\n}\n\n// File: contracts/CreateCampaign.sol\n\npragma solidity ^0.8.15;\n\ncontract CreateCampaign {\n\n\n    address[] allAlystCampaign;\n\n    function createCampaign(string memory  _campaignName, uint _campaignTargetAmount, uint _campaignPeriod) public returns (address newCampaign) {\n         AlystCampaign campaign = new AlystCampaign(_campaignName, _campaignTargetAmount, _campaignPeriod);\n         allAlystCampaign.push(address(campaign));\n         return address(campaign);\n    }\n}\n",
  "sourcePath": "/Users/dolph5n/Desktop/alystSC/contracts/flattenCreateCampaign.sol",
  "compiler": {
    "name": "solc",
    "version": "0.8.15+commit.e14f2714.Emscripten.clang"
  },
  "schemaVersion": "3.4.7",
  "updatedAt": "2022-12-11T14:34:13.844Z",
  "networkType": "ethereum",
  "devdoc": {
    "kind": "dev",
    "methods": {},
    "version": 1
  },
  "userdoc": {
    "kind": "user",
    "methods": {},
    "version": 1
  }
}